{
  "_format": "hh-sol-artifact-1",
  "contractName": "Payment",
  "sourceName": "contracts/Payment.sol",
  "abi": [
    {
      "anonymous": false,
      "inputs": [
        {
          "indexed": false,
          "internalType": "uint256",
          "name": "amount",
          "type": "uint256"
        }
      ],
      "name": "SetBenefitAmount",
      "type": "event"
    },
    {
      "anonymous": false,
      "inputs": [
        {
          "indexed": true,
          "internalType": "address",
          "name": "user",
          "type": "address"
        },
        {
          "indexed": false,
          "internalType": "uint256",
          "name": "count",
          "type": "uint256"
        }
      ],
      "name": "SetNewShares",
      "type": "event"
    },
    {
      "anonymous": false,
      "inputs": [
        {
          "indexed": true,
          "internalType": "address",
          "name": "user",
          "type": "address"
        },
        {
          "indexed": false,
          "internalType": "uint256",
          "name": "shares",
          "type": "uint256"
        },
        {
          "indexed": false,
          "internalType": "uint256",
          "name": "benefit",
          "type": "uint256"
        }
      ],
      "name": "Withdraw",
      "type": "event"
    },
    {
      "inputs": [],
      "name": "benefitAmount",
      "outputs": [
        {
          "internalType": "uint256",
          "name": "",
          "type": "uint256"
        }
      ],
      "stateMutability": "view",
      "type": "function"
    },
    {
      "inputs": [],
      "name": "initialize",
      "outputs": [],
      "stateMutability": "nonpayable",
      "type": "function"
    },
    {
      "inputs": [],
      "name": "name",
      "outputs": [
        {
          "internalType": "string",
          "name": "",
          "type": "string"
        }
      ],
      "stateMutability": "view",
      "type": "function"
    },
    {
      "inputs": [
        {
          "internalType": "uint256",
          "name": "_amount",
          "type": "uint256"
        }
      ],
      "name": "setBenefitAmount",
      "outputs": [],
      "stateMutability": "nonpayable",
      "type": "function"
    },
    {
      "inputs": [
        {
          "internalType": "uint32",
          "name": "_shareCount",
          "type": "uint32"
        },
        {
          "internalType": "address",
          "name": "_user",
          "type": "address"
        }
      ],
      "name": "setNewShares",
      "outputs": [],
      "stateMutability": "nonpayable",
      "type": "function"
    },
    {
      "inputs": [
        {
          "internalType": "uint32",
          "name": "_streamingTime",
          "type": "uint32"
        }
      ],
      "name": "setStreamingTime",
      "outputs": [
        {
          "internalType": "bool",
          "name": "",
          "type": "bool"
        }
      ],
      "stateMutability": "nonpayable",
      "type": "function"
    },
    {
      "inputs": [
        {
          "internalType": "address",
          "name": "",
          "type": "address"
        }
      ],
      "name": "shareOf",
      "outputs": [
        {
          "internalType": "uint256",
          "name": "",
          "type": "uint256"
        }
      ],
      "stateMutability": "view",
      "type": "function"
    },
    {
      "inputs": [],
      "name": "streamingTime",
      "outputs": [
        {
          "internalType": "uint32",
          "name": "",
          "type": "uint32"
        }
      ],
      "stateMutability": "view",
      "type": "function"
    },
    {
      "inputs": [],
      "name": "totalShares",
      "outputs": [
        {
          "internalType": "uint32",
          "name": "",
          "type": "uint32"
        }
      ],
      "stateMutability": "view",
      "type": "function"
    },
    {
      "inputs": [],
      "name": "withdraw",
      "outputs": [],
      "stateMutability": "nonpayable",
      "type": "function"
    }
  ],
  "bytecode": "0x608060405234801561001057600080fd5b506001600055610956806100256000396000f3fe608060405234801561001057600080fd5b506004361061009e5760003560e01c80633ccfd60b116100665780633ccfd60b146101545780638129fc1c1461015c5780638a6a71ba14610164578063f7e826de14610177578063f9ad74fc1461018057600080fd5b806306fdde03146100a357806321e5e2c4146100c157806333b0ccd5146100ef57806337b10b85146101045780633a98ef3914610127575b600080fd5b6100ab610190565b6040516100b891906107ca565b60405180910390f35b6100e16100cf366004610741565b60056020526000908152604090205481565b6040519081526020016100b8565b6101026100fd366004610797565b61021e565b005b61011761011236600461077c565b61037f565b60405190151581526020016100b8565b60045461013f90640100000000900463ffffffff1681565b60405163ffffffff90911681526020016100b8565b610102610420565b610102610578565b610102610172366004610763565b6105c8565b6100e160035481565b60045461013f9063ffffffff1681565b6001805461019d906108cf565b80601f01602080910402602001604051908101604052809291908181526020018280546101c9906108cf565b80156102165780601f106101eb57610100808354040283529160200191610216565b820191906000526020600020905b8154815290600101906020018083116101f957829003601f168201915b505050505081565b6002546001600160a01b031633146102515760405162461bcd60e51b81526004016102489061081f565b60405180910390fd5b6001600160a01b0381161580159061026f575060008263ffffffff16115b6102bb5760405162461bcd60e51b815260206004820152601e60248201527f5061796d656e743a20496e76616c69642053686172696e6720496e70757400006044820152606401610248565b6001600160a01b0381166000908152600560205260408120805463ffffffff851692906102e990849061084e565b9091555050600480548391908190610310908490640100000000900463ffffffff16610866565b92506101000a81548163ffffffff021916908363ffffffff160217905550806001600160a01b03167fccf284398328dfb22b18126265138bdb5e5e493d8a5df973a0c835121abb1ec983604051610373919063ffffffff91909116815260200190565b60405180910390a25050565b6002546000906001600160a01b031633146103ac5760405162461bcd60e51b81526004016102489061081f565b60008263ffffffff16116104025760405162461bcd60e51b815260206004820152601860248201527f5061796d656e743a2054696d652063616e2774206265203000000000000000006044820152606401610248565b506004805463ffffffff191663ffffffff831617905560015b919050565b336000908152600560205260409020546104705760405162461bcd60e51b81526020600482015260116024820152705061796d656e743a204e6f20736861726560781b6044820152606401610248565b600454336000908152600560205260408120546003549192640100000000900463ffffffff16916104a191906108b0565b6104ab919061088e565b9050600081116104fd5760405162461bcd60e51b815260206004820152601c60248201527f5061796d656e743a2042656e6566697420616d6f756e742069732030000000006044820152606401610248565b604051339082156108fc029083906000818181858888f1935050505015801561052a573d6000803e3d6000fd5b50336000818152600560209081526040918290205482519081529081018490527ff279e6a1f5e320cca91135676d9cb6e44ca8a08c0b88342bcdb1144f6511b568910160405180910390a250565b604080518082019091526014808252734574682026204552433230207061796d656e747360601b60209092019182526105b39160019161067d565b50600280546001600160a01b03191633179055565b6002546001600160a01b031633146105f25760405162461bcd60e51b81526004016102489061081f565b600081116106425760405162461bcd60e51b815260206004820152601a60248201527f5061796d656e743a20416d6f756e742063616e277420626520300000000000006044820152606401610248565b60038190556040518181527f737e0b8b08465c633e4f81e8c4ea89094c18a0edb8498862568b232c52ac36f19060200160405180910390a150565b828054610689906108cf565b90600052602060002090601f0160209004810192826106ab57600085556106f1565b82601f106106c457805160ff19168380011785556106f1565b828001600101855582156106f1579182015b828111156106f15782518255916020019190600101906106d6565b506106fd929150610701565b5090565b5b808211156106fd5760008155600101610702565b80356001600160a01b038116811461041b57600080fd5b803563ffffffff8116811461041b57600080fd5b60006020828403121561075357600080fd5b61075c82610716565b9392505050565b60006020828403121561077557600080fd5b5035919050565b60006020828403121561078e57600080fd5b61075c8261072d565b600080604083850312156107aa57600080fd5b6107b38361072d565b91506107c160208401610716565b90509250929050565b600060208083528351808285015260005b818110156107f7578581018301518582016040015282016107db565b81811115610809576000604083870101525b50601f01601f1916929092016040019392505050565b60208082526015908201527414185e5b595b9d0e88155b985d5d1a1bdc9a5e9959605a1b604082015260600190565b600082198211156108615761086161090a565b500190565b600063ffffffff8083168185168083038211156108855761088561090a565b01949350505050565b6000826108ab57634e487b7160e01b600052601260045260246000fd5b500490565b60008160001904831182151516156108ca576108ca61090a565b500290565b600181811c908216806108e357607f821691505b6020821081141561090457634e487b7160e01b600052602260045260246000fd5b50919050565b634e487b7160e01b600052601160045260246000fdfea2646970667358221220f89c2bb380d68fe519631a554baecf26bb2e0cbcf5bade7690b856a3555f094564736f6c63430008070033",
  "linkReferences": {},
  "deployedLinkReferences": {}
}